:100000000C946A000C94C1010C94DE010C949200D3
:100010000C9492000C9492000C9492000C94920018
:100020000C9492000C9492000C9492000C94920008
:100030000C9492000C9492000C9492000C949200F8
:100040000C9479020C9492000C943C020C94920053
:100050000C9492000C9492000C9492000C949200D8
:100060000C9492000C94920005A84CCDB2D44EB9D9
:100070003836A9020C50B9918688083CA6AAAA2A4B
:10008000BE000000803F000024272A000025282B06
:1000900000002326290404040404040404020202C8
:1000A00002020203030303030301020408102040B9
:1000B0008001020408102001020408102000000042
:1000C0000700020100000304060000000000000019
:1000D0000000FE0311241FBECFEFD4E0DEBFCDBF72
:1000E00011E0A0E0B1E0EEE0FDE002C005900D926D
:1000F000AE32B107D9F711E0AEE2B1E001C01D9216
:10010000A43CB107E1F710E0C4EDD0E004C02297B1
:10011000FE010E948106C23DD107C9F70E94BA01C3
:100120000C9485060C940000EF92FF920F931F939E
:100130007B018C0161E089E00E94790320E030E0DE
:1001400044E254E4C801B7010E9472050E9476049B
:10015000DC01CB010E94130360E089E00E94790377
:10016000A801970160E070E080E89FE30E940E0420
:1001700020E030E044E254E40E9472050E947604DC
:10018000DC01CB010E9413031F910F91FF90EF90B0
:1001900008952F923F924F925F926F927F928F922B
:1001A0009F92AF92BF92CF92DF92EF92FF920F9306
:1001B0001F93DF93CF93CDB7DEB728970FB6F89490
:1001C000DEBF0FBECDBF29833A834B835C83662499
:1001D000772443019C01442737FD4095542F2D83FC
:1001E0003E834F8358871B01442437FC4094542C92
:1001F0004CC0C401B3010E94A4047B018C016D8139
:100200007E818F8198850E94A40420ED3FE049EC17
:1002100050E40E947205A80197010E9472050E9495
:1002200073045B016C01C201B1010E94A40420EDC2
:100230003FE049EC50E40E947205A80197010E943A
:1002400072050E9473049B01AC01C601B5010E94B6
:100250000F0420E030E040E050E40E940F0420E072
:1002600030E040E85EE30E9472050E94760480E080
:1002700090E00E94A2040E94940080E992E0A0E035
:10028000B0E0680E791E8A1E9B1E29813A814B813F
:100290005C8162167306840695060CF4AACF80E092
:1002A00090E028960FB6F894DEBF0FBECDBFCF9179
:1002B000DF911F910F91FF90EF90DF90CF90BF9053
:1002C000AF909F908F907F906F905F904F903F90F6
:1002D0002F9008950F931F93CF93DF93A0E0B0E08A
:1002E00019C08881813369F4AA0FBB1FA85FBE4F74
:1002F0000D911C91EE0FFF1FE05FFE4FC081D18179
:1003000013C031962196E430F10559F71196A430C7
:10031000B10551F0ED01CC0FDD1FCC0FDD1FC85E24
:10032000DE4FE0E0F0E0DDCF60E071E082E491E0FC
:100330000E94F30320E137E240E050E0BE01C80133
:100340000E94C90068EE73E080E090E00E94E9023C
:10035000DF91CF911F910F91089540E855E260E041
:1003600070E082E491E00E94090461E089E00E946B
:100370005B0308950E9421030E94AD010E946A015F
:10038000FDCF1F920F920FB60F9211248F939F9360
:10039000EF93FF9380912E0190912F01892B29F0EB
:1003A000E0912E01F0912F010995FF91EF919F911E
:1003B0008F910F900FBE0F901F9018951F920F9264
:1003C0000FB60F9211248F939F93EF93FF93809119
:1003D000300190913101892B29F0E0913001F091A9
:1003E00031010995FF91EF919F918F910F900FBE71
:1003F0000F901F901895EF92FF920F931F937B0120
:100400008C0122E030E040E050E00E945006205C89
:100410003D4B404F5F4FCA01B901A80197010E94AF
:100420005006C901DA010197A109B109292F3A2F14
:100430004B2F552747FD5A950196A11DB11D2093BD
:10044000C50081508093C400E1ECF0E080818061C0
:1004500080838081886080838081806880831F9111
:100460000F91FF90EF900895982F8091C00085FF25
:10047000FCCF9093C60008951F920F920FB60F9273
:1004800011242F933F934F935F936F937F938F9399
:100490009F93AF93BF93EF93FF934091C600E0917A
:1004A0003201F0913301CF01019660E870E00E94C3
:1004B0001B069C0180913401909135012817390762
:1004C00039F0EC5BFE4F40833093330120933201CF
:1004D000FF91EF91BF91AF919F918F917F916F911C
:1004E0005F914F913F912F910F900FBE0F901F90F2
:1004F00018951F920F920FB60F9211242F938F937E
:100500009F93AF93BF938091360190913701A09153
:100510003801B09139010196A11DB11D80933601BA
:1005200090933701A0933801B093390180913A013B
:1005300090913B01A0913C01B0913D018050904CC5
:10054000AF4FBF4F80933A0190933B01A0933C0182
:10055000B0933D0127C080913A0190913B01A09159
:100560003C01B0913D0180589E43A040B040809333
:100570003A0190933B01A0933C01B0933D018091DF
:100580003E0190913F01A0914001B091410101963F
:10059000A11DB11D80933E0190933F01A0934001A6
:1005A000B093410180913A0190913B01A0913C01AF
:1005B000B0913D0181589E43A040B04060F6BF918C
:1005C000AF919F918F912F910F900FBE0F901F9021
:1005D0001895EF92FF920F931F937B018C018FB7B9
:1005E000F89440913E0150913F016091400170911B
:1005F00041018FBF2FB7F89480913E0190913F0148
:10060000A0914001B09141012FBF841B950BA60B17
:10061000B70BE816F9060A071B0760F71F910F9141
:10062000FF90EF900895019759F0FC01EE0FFF1F26
:10063000EE0FFF1F32978FB7F8943197F1F78FBF06
:100640000895789484B5826084BD84B5816084BD4A
:1006500085B5826085BD85B5816085BDEEE6F0E03B
:10066000808181608083E1E8F0E080818260808326
:10067000808181608083E0E8F0E080818160808318
:10068000E1EBF0E0808184608083E0EBF0E080814A
:1006900081608083EAE7F0E08081846080838081EC
:1006A0008260808380818160808380818068808394
:1006B0001092C1000895282F30E0C90187559F4F3F
:1006C000FC0194912B563F4FF9018491882381F0CE
:1006D000E82FF0E0EA57FF4FE491F0E0662329F4B9
:1006E000808190958923808308958081892B8083E0
:1006F0000895482F50E0CA0183549F4FFC01249174
:10070000CA0187559F4FFC0194914B565F4FFA01E8
:1007100034913323C1F1222331F1233021F480912C
:1007200080008F7705C0243031F4809180008F7D68
:100730008093800018C0213019F484B58F7704C0ED
:10074000223021F484B58F7D84BD0DC0263021F484
:100750008091B0008F7705C0273029F48091B000D8
:100760008F7D8093B000E32FF0E0E557FF4FE491D9
:10077000F0E0662329F48081909589238083089591
:100780008081892B808308950F931F93CF93DF93EC
:100790008C01EB0109C02196D801ED91FC910190EB
:1007A000F081E02DC801099568816623A1F7DF91EA
:1007B000CF911F910F9108950F931F938C01DC012E
:1007C000ED91FC910190F081E02D6DE00995D8014B
:1007D000ED91FC910190F081E02D6AE0C80109954E
:1007E0001F910F9108950F931F938C010E94C403D2
:1007F000C8010E94DC031F910F9108958CE291E0E3
:1008000090934301809342010895862F0E94340201
:100810000895CB01BA010E94FB0108955058BB27EF
:10082000AA270ED014C1D4D030F0D9D020F031F4A2
:100830009F3F11F41EF4C9C00EF4E095E7FBBFC062
:10084000E92F27D180F3BA1762077307840795074A
:1008500018F071F49EF53FC10EF4E0950B2EBA2FFF
:10086000A02D0B01B90190010C01CA01A0011124B6
:10087000FF27591B99F0593F50F4503E68F11A1662
:10088000F040A22F232F342F4427585FF3CF4695F3
:1008900037952795A795F0405395C9F77EF41F1615
:1008A000BA0B620B730B840BBAF09150A1F0FF0FDF
:1008B000BB1F661F771F881FC2F70EC0BA0F621FCB
:1008C000731F841F48F4879577956795B795F795BB
:1008D0009E3F08F0B3CF9395880F08F09927EE0F4D
:1008E00097958795089583D0E395C2C0DAD088F0B4
:1008F0009F5790F0B92F9927B751A0F0D1F0660F0C
:10090000771F881F991F1AF0BA95C9F712C0B13026
:1009100081F0E1D0B1E00895DEC0672F782F8827FD
:10092000B85F39F0B93FCCF3869577956795B39565
:10093000D9F73EF490958095709561957F4F8F4FD4
:100940009F4F0895E89409C097FB3EF490958095D9
:10095000709561957F4F8F4F9F4F9923A9F0F92F85
:1009600096E9BB279395F695879577956795B79503
:10097000F111F8CFFAF4BB0F11F460FF1BC06F5FE9
:100980007F4F8F4F9F4F16C0882311F096E911C0FB
:10099000772321F09EE8872F762F05C0662371F01C
:1009A00096E8862F70E060E02AF09A95660F771F30
:1009B000881FDAF7880F9695879597F9089597F924
:1009C0009F6780E870E060E008959FEF80EC0895F5
:1009D00000240A941616170618060906089500241E
:1009E0000A9412161306140605060895EECF59D080
:1009F000E8F3E894EFEFBB273FE048EC5FE76B3D9F
:100A000073078407950708F1FF279F57B25A6A4D6D
:100A10007F40894CF04032F4BE556542704F8643AA
:100A2000FF4F0894EE1F915030F0BB0F661F771FE9
:100A3000881FFF1FEBCF9EE7882332F0BB0F661F96
:100A4000771F881F9A95C1F79395E095AEC0092E40
:100A50000394000C11F4882352F0BB0F40F4BF2B19
:100A600011F460FF04C06F5F7F4F8F4F9F4F089559
:100A7000EF93E0FF06C0A2EA2AED3FE049EC5FEB0E
:100A8000DFDEE5DF0F90039401FC9058E8E6F0E02C
:100A90009CC057FD9058440F551F59F05F3F71F0AF
:100AA0004795880F97FB991F61F09F3F79F08795D5
:100AB0000895121613061406551FF2CF4695F1DF5E
:100AC00008C0161617061806991FF1CF86957105EE
:100AD000610508940895E894BB2766277727CB0122
:100AE00097F908950BD0B3CF73DF28F078DF18F0B3
:100AF000952309F064CF69CF1124EECFCADFA0F3AC
:100B0000959FD1F3950F50E0551F629FF001729FA2
:100B1000BB27F00DB11D639FAA27F00DB11DAA1FC1
:100B2000649F6627B00DA11D661F829F2227B00D0E
:100B3000A11D621F739FB00DA11D621F839FA00D99
:100B4000611D221F749F3327A00D611D231F849FE9
:100B5000600D211D822F762F6A2F11249F57504040
:100B60008AF0E1F088234AF0EE0FFF1FBB1F661FDB
:100B7000771F881F91505040A9F79E3F510570F094
:100B80001ECFAACF5F3FECF3983EDCF386957795B6
:100B90006795B795F795E7959F5FC1F7FE2B880F8F
:100BA000911D9695879597F908959F3F49F091502B
:100BB00028F4869577956795B7959F5F80389F4F06
:100BC000880F9695879597F908959F938F937F93B4
:100BD0006F93FF93EF939B01AC0184DFEF91FF9143
:100BE00005D02F913F914F915F917CCFDF93CF93B1
:100BF0001F930F93FF92EF92DF927B018C01689419
:100C000005C0DA2EEF017ADFFE01E894A591259167
:100C1000359145915591AEF3EF0112DEFE0197013A
:100C2000A801DA9479F7DF90EF90FF900F911F9170
:100C3000CF91DF91089597FB092E07260AD077FD03
:100C400004D049D006D000201AF4709561957F4FEA
:100C50000895F6F7909581959F4F0895A1E21A2E79
:100C6000AA1BBB1BFD010DC0AA1FBB1FEE1FFF1F50
:100C7000A217B307E407F50720F0A21BB30BE40BA0
:100C8000F50B661F771F881F991F1A9469F76095E7
:100C90007095809590959B01AC01BD01CF010895A1
:100CA00097FB092E05260ED057FD04D0D7DF0AD0BA
:100CB000001C38F450954095309521953F4F4F4F8B
:100CC0005F4F0895F6F790958095709561957F4FE9
:100CD0008F4F9F4F0895AA1BBB1B51E107C0AA1F4E
:100CE000BB1FA617B70710F0A61BB70B881F991FCD
:100CF0005A95A9F780959095BC01CD010895EE0F06
:0E0D0000FF1F0590F491E02D0994F894FFCFA9
:100D0E00546F6E6520313A00B90202035403AD03ED
:100D1E00B9043805C50561063132334134353642E2
:0E0D2E00373839432A30234400000000050402
:00000001FF
