:100000000C946A000C9491020C94AE020C94920031
:100010000C9492000C9492000C9492000C94920018
:100020000C9492000C9492000C9492000C94920008
:100030000C9492000C9492000C9492000C949200F8
:100040000C9449030C9492000C940C030C949200B1
:100050000C9492000C9492000C9492000C949200D8
:100060000C9492000C94920005A84CCDB2D44EB9D9
:100070003836A9020C50B9918688083CA6AAAA2A4B
:10008000BE000000803F000024272A000025282B06
:1000900000002326290404040404040404020202C8
:1000A00002020203030303030301020408102040B9
:1000B0008001020408102001020408102000000042
:1000C0000700020100000304060000000000000019
:1000D0000000260511241FBECFEFD4E0DEBFCDBF48
:1000E00011E0A0E0B1E0E8E8F0E102C005900D9277
:1000F000AE33B107D9F711E0AEE3B1E001C01D9214
:10010000A43DB107E1F710E0C4EDD0E004C02297B0
:10011000FE010E943E08C23DD107C9F70E948A0233
:100120000C9442080C9400002F923F925F926F92C1
:100130007F928F929F92AF92BF92CF92DF92EF9277
:10014000FF920F931F93CF93DF9359016A015E2CA7
:1001500020E030E040E050E0C601B5010E949B0580
:100160003801882477FC8094982C882329F4C401D2
:10017000B3010E94B90351C061E08E2D0E942B048F
:10018000A601950160E070E080E89FE30E94A2056F
:1001900020E034E244E759E40E942F075B016C0140
:1001A00020E030E040E05FE30E942F070E940A0653
:1001B0007B018C0139EF232E3FEF332E260E371EA5
:1001C000C401B3010E943D0620E030E04AE754E458
:1001D0000E942F07A60195010E94A2050E940A060F
:1001E0006B0100E010E0E701289710C061E0852D69
:1001F0000E944904C1010E94E30360E0852D0E9432
:100200004904CE010E94E3030F5F1F4F0C151D052B
:100210006CF360E0852D0E942B04DF91CF911F913C
:100220000F91FF90EF90DF90CF90BF90AF909F9095
:100230008F907F906F905F903F902F9008952F92B6
:100240003F924F925F926F927F928F929F92AF9266
:10025000BF92CF92DF92EF92FF920F931F93CF93B3
:10026000DF93EA0121E030E01C01442437FC409494
:10027000542C3B01882477FC8094982C41C0B90110
:10028000882777FD8095982F0E943D067B018C0181
:10029000C201B1010E943D0620ED3FE049EC50E46F
:1002A0000E942F07A80197010E942F070E949F0517
:1002B0005B016C01C401B3010E943D0620ED3FE0EB
:1002C00049EC50E40E942F07A80197010E942F07D4
:1002D0000E949F059B01AC01C601B5010E94370534
:1002E0000E940F0689E00E94CE0420E030E040E842
:1002F0005FE3C801B7010E9437050E940A069B010F
:100300002C173D070CF4BBCF80E090E0DF91CF913C
:100310001F910F91FF90EF90DF90CF90BF90AF9023
:100320009F908F907F906F905F904F903F902F9015
:100330000895CF92DF92EF92FF920F931F93CF9386
:10034000DF9309E0E02EF12C08EE13E020E030E22C
:1003500047E954E460E070E48EE294E40E94940083
:1003600020E030E047EA54E460E070E880E494E4A0
:100370000E94940020E030EA48EB54E460E070E032
:1003800085E594E40E94940020E030E24CEC54E4D3
:1003900060E070E48BE694E40E949400A0E0B0E09A
:1003A00019C08881813369F4AA0FBB1FA85EBE4FB4
:1003B000CD90DC90EE0FFF1FE05EFE4FC081D1813B
:1003C00013C031962196E430F10559F71196A43007
:1003D000B10551F0ED01CC0FDD1FCC0FDD1FC85D65
:1003E000DE4FE0E0F0E0DDCFE0E0F0E014C08C9123
:1003F000823339F4EE0FFF1FE85EFE4F808191815A
:1004000014C02F5F3F4F11962430310581F731968C
:10041000E430F10551F0DF01AA0FBB1FAA0FBB1F8B
:10042000A85DBE4F20E030E0E2CFF82EE92EE0E0FC
:10043000F0E014C08C91833339F4EE0FFF1FE85EB7
:10044000FE4F8081918114C02F5F3F4F1196243061
:10045000310581F73196E430F10551F0DF01AA0F43
:10046000BB1FAA0FBB1FA85DBE4F20E030E0E2CF4C
:10047000182F092F60E071E082E591E00E94C3042B
:1004800040E157E2BE01C6010E941F0168EE73E021
:1004900080E090E00E94B90368E071E082E591E0BD
:1004A0000E94C30440E157E2BE018F2D9E2D0E94A1
:1004B0001F0168EE73E080E090E00E94B90360E104
:1004C00071E082E591E00E94C30440E157E2BE0181
:1004D000812F902F0E941F0168EE73E080E090E072
:1004E0000E94B90364EF71E080E090E00E94B903DC
:1004F000DF91CF911F910F91FF90EF90DF90CF9000
:10050000089540E855E260E070E082E591E00E94E5
:10051000310508950E94F1030E9481020E94990111
:10052000FDCF1F920F920FB60F9211248F939F93BE
:10053000EF93FF9380913E0190913F01892B29F029
:10054000E0913E01F0913F010995FF91EF919F915C
:100550008F910F900FBE0F901F9018951F920F92C2
:100560000FB60F9211248F939F93EF93FF93809177
:10057000400190914101892B29F0E0914001F091D7
:1005800041010995FF91EF919F918F910F900FBEBF
:100590000F901F901895EF92FF920F931F937B017E
:1005A0008C0122E030E040E050E00E940D08205C29
:1005B0003D4B404F5F4FCA01B901A80197010E940E
:1005C0000D08C901DA010197A109B109292F3A2FB4
:1005D0004B2F552747FD5A950196A11DB11D20931C
:1005E000C50081508093C400E1ECF0E0808180611F
:1005F00080838081886080838081806880831F9170
:100600000F91FF90EF900895982F8091C00085FF83
:10061000FCCF9093C60008951F920F920FB60F92D1
:1006200011242F933F934F935F936F937F938F93F7
:100630009F93AF93BF93EF93FF934091C600E091D8
:100640004201F0914301CF01019660E870E00E9401
:10065000D8079C01809144019091450128173907E2
:1006600039F0EC5AFE4F408330934301209342010E
:10067000FF91EF91BF91AF919F918F917F916F917A
:100680005F914F913F912F910F900FBE0F901F9050
:1006900018951F920F920FB60F9211242F938F93DC
:1006A0009F93AF93BF938091460190914701A09192
:1006B0004801B09149010196A11DB11D80934601E9
:1006C00090934701A0934801B093490180914A015A
:1006D00090914B01A0914C01B0914D018050904CF4
:1006E000AF4FBF4F80934A0190934B01A0934C01B1
:1006F000B0934D0127C080914A0190914B01A09188
:100700004C01B0914D0180589E43A040B040809371
:100710004A0190934B01A0934C01B0934D018091FD
:100720004E0190914F01A0915001B091510101965D
:10073000A11DB11D80934E0190934F01A0935001D4
:10074000B093510180914A0190914B01A0914C01CD
:10075000B0914D0181589E43A040B04060F6BF91DA
:10076000AF919F918F912F910F900FBE0F901F907F
:100770001895EF92FF920F931F937B018C018FB717
:10078000F89440914E0150914F0160915001709149
:1007900051018FBF2FB7F89480914E0190914F0176
:1007A000A0915001B09151012FBF841B950BA60B56
:1007B000B70BE816F9060A071B0760F71F910F91A0
:1007C000FF90EF900895019759F0FC01EE0FFF1F85
:1007D000EE0FFF1F32978FB7F8943197F1F78FBF65
:1007E0000895789484B5826084BD84B5816084BDA9
:1007F00085B5826085BD85B5816085BDEEE6F0E09A
:10080000808181608083E1E8F0E080818260808384
:10081000808181608083E0E8F0E080818160808376
:10082000E1EBF0E0808184608083E0EBF0E08081A8
:1008300081608083EAE7F0E080818460808380814A
:1008400082608083808181608083808180688083F2
:100850001092C1000895282F30E0C90187559F4F9D
:10086000FC0194912B563F4FF9018491882381F02C
:10087000E82FF0E0EA57FF4FE491F0E0662329F417
:10088000808190958923808308958081892B80833E
:100890000895482F50E0CA0183549F4FFC012491D2
:1008A000CA0187559F4FFC0194914B565F4FFA0147
:1008B00034913323C1F1222331F1233021F480918B
:1008C00080008F7705C0243031F4809180008F7DC7
:1008D0008093800018C0213019F484B58F7704C04C
:1008E000223021F484B58F7D84BD0DC0263021F4E3
:1008F0008091B0008F7705C0273029F48091B00037
:100900008F7D8093B000E32FF0E0E557FF4FE49137
:10091000F0E0662329F480819095892380830895EF
:100920008081892B808308950F931F93CF93DF934A
:100930008C01EB0109C02196D801ED91FC91019049
:10094000F081E02DC801099568816623A1F7DF9148
:10095000CF911F910F9108950F931F938C01DC018C
:10096000ED91FC910190F081E02D6DE00995D801A9
:10097000ED91FC910190F081E02D6AE0C8010995AC
:100980001F910F9108950F931F938C010E9494045F
:10099000C8010E94AC041F910F9108951F93CF933B
:1009A000DF93182FEB0161E00E942B04E12FF0E0B0
:1009B000E354FF4F8491833051F48091800080682C
:1009C00080938000D0938900C09388003BC084301E
:1009D00051F480918000806280938000D0938B00DE
:1009E000C0938A002FC0813039F4209729F184B553
:1009F000806884BDC7BD26C0823039F42097E1F0FD
:100A000084B5806284BDC8BD1DC0863041F480912C
:100A1000B00080688093B000C093B30013C08730EB
:100A200041F48091B00080628093B000C093B40024
:100A300009C0C038D10514F460E001C061E0812F25
:100A40000E944904DF91CF911F9108958CE391E0BA
:100A500090935301809352010895862F0E940403BE
:100A60000895CB01BA010E94CB0208955058BB27CC
:100A7000AA270ED0A9C169D130F06ED120F031F48F
:100A80009F3F11F41EF45EC10EF4E095E7FB54C1E4
:100A9000E92FBCD180F3BA17620773078407950763
:100AA00018F071F49EF5D4C10EF4E0950B2EBA2F18
:100AB000A02D0B01B90190010C01CA01A001112464
:100AC000FF27591B99F0593F50F4503E68F11A1610
:100AD000F040A22F232F342F4427585FF3CF4695A1
:100AE00037952795A795F0405395C9F77EF41F16C3
:100AF000BA0B620B730B840BBAF09150A1F0FF0F8D
:100B0000BB1F661F771F881FC2F70EC0BA0F621F78
:100B1000731F841F48F4879577956795B795F79568
:100B20009E3F08F0B3CF9395880F08F09927EE0FFA
:100B3000979587950895DCD008F481E0089514D145
:100B4000E39553C10CD040C107D140F0FED030F046
:100B500021F45F3F19F0F0C051117BC1F3C056D1B1
:100B600098F39923C9F35523B1F3951B550BBB2774
:100B7000AA2762177307840738F09F5F5F4F220F21
:100B8000331F441FAA1FA9F333D00E2E3AF0E0E81A
:100B900030D091505040E695001CCAF729D0FE2F66
:100BA00027D0660F771F881FBB1F261737074807F8
:100BB000AB07B0E809F0BB0B802DBF01FF279358AE
:100BC0005F4F2AF09E3F510568F0B6C042C15F3FBB
:100BD000ECF3983EDCF3869577956795B795F79596
:100BE0009F5FC9F7880F911D9695879597F908958E
:100BF000E1E0660F771F881FBB1F6217730784072A
:100C0000BA0720F0621B730B840BBA0BEE1F88F738
:100C1000E095089504D06894B1111BC10895FED0E9
:100C200088F09F5790F0B92F9927B751A0F0D1F0D5
:100C3000660F771F881F991F1AF0BA95C9F712C05F
:100C4000B13081F005D1B1E0089502C1672F782F4E
:100C50008827B85F39F0B93FCCF3869577956795CB
:100C6000B395D9F73EF490958095709561957F4F37
:100C70008F4F9F4F0895E89409C097FB3EF49095DD
:100C80008095709561957F4F8F4F9F4F9923A9F065
:100C9000F92F96E9BB279395F695879577956795F4
:100CA000B795F111F8CFFAF4BB0F11F460FF1BC038
:100CB0006F5F7F4F8F4F9F4F16C0882311F096E9CB
:100CC00011C0772321F09EE8872F762F05C0662379
:100CD00071F096E8862F70E060E02AF09A95660F32
:100CE000771F881FDAF7880F9695879597F90895EB
:100CF000990F0008550FAA0BE0E8FEEF161617062D
:100D0000E807F907C0F012161306E407F50798F094
:100D1000621B730B840B950B39F40A2661F0232BAD
:100D2000242B252B21F408950A2609F4A140A69529
:100D30008FEF811D811D089597F99F6780E870E00E
:100D400060E008959FEF80EC089500240A94161641
:100D5000170618060906089500240A9412161306A9
:100D6000140605060895EECF59D0E8F3E894EFEFA6
:100D7000BB273FE048EC5FE76B3D730784079507AF
:100D800008F1FF279F57B25A6A4D7F40894CF040C7
:100D900032F4BE556542704F8643FF4F0894EE1FF4
:100DA000915030F0BB0F661F771F881FFF1FEBCFDE
:100DB0009EE7882332F0BB0F661F771F881F9A9526
:100DC000C1F79395E095AEC0092E0394000C11F481
:100DD000882352F0BB0F40F4BF2B11F460FF04C016
:100DE0006F5F7F4F8F4F9F4F0895EF93E0FF06C0D7
:100DF000A2EA2AED3FE049EC5FEB4ADEE5DF0F9027
:100E0000039401FC9058E8E6F0E09CC057FD905830
:100E1000440F551F59F05F3F71F04795880F97FBBE
:100E2000991F61F09F3F79F0879508951216130678
:100E30001406551FF2CF4695F1DF08C016161706A7
:100E40001806991FF1CF86957105610508940895DC
:100E5000E894BB2766277727CB0197F908950BD035
:100E6000B3CF73DF28F078DF18F0952309F064CF53
:100E700069CF1124EECFCADFA0F3959FD1F3950F70
:100E800050E0551F629FF001729FBB27F00DB11D0E
:100E9000639FAA27F00DB11DAA1F649F6627B00D9E
:100EA000A11D661F829F2227B00DA11D621F739F87
:100EB000B00DA11D621F839FA00D611D221F749F95
:100EC0003327A00D611D231F849F600D211D822FDC
:100ED000762F6A2F11249F5750408AF0E1F0882323
:100EE0004AF0EE0FFF1FBB1F661F771F881F915030
:100EF0005040A9F79E3F510570F01ECFAACF5F3F2B
:100F0000ECF3983EDCF3869577956795B795F79562
:100F1000E7959F5FC1F7FE2B880F911D96958795EA
:100F200097F908959F3F49F0915028F48695779559
:100F30006795B7959F5F80389F4F880F96958795E7
:100F400097F908959F938F937F936F93FF93EF93F8
:100F50009B01AC0184DFEF91FF9105D02F913F9170
:100F60004F915F917CCFDF93CF931F930F93FF92AD
:100F7000EF92DF927B018C01689405C0DA2EEF01BD
:100F80007ADFFE01E894A59125913591459155911F
:100F9000AEF3EF017DDDFE019701A801DA9479F748
:100FA000DF90EF90FF900F911F91CF91DF91089507
:100FB00097FB092E07260AD077FD04D049D006D02A
:100FC00000201AF4709561957F4F0895F6F790957B
:100FD00081959F4F0895A1E21A2EAA1BBB1BFD010C
:100FE0000DC0AA1FBB1FEE1FFF1FA217B307E40708
:100FF000F50720F0A21BB30BE40BF50B661F771F60
:10100000881F991F1A9469F760957095809590953F
:101010009B01AC01BD01CF01089597FB092E052668
:101020000ED057FD04D0D7DF0AD0001C38F45095FD
:101030004095309521953F4F4F4F5F4F0895F6F7FC
:1010400090958095709561957F4F8F4F9F4F089534
:10105000AA1BBB1B51E107C0AA1FBB1FA617B707DE
:1010600010F0A61BB70B881F991F5A95A9F78095FA
:101070009095BC01CD010895EE0FFF1F0590F491EE
:08108000E02D0994F894FFCF64
:10108800546F6E6520313A00546F6E6520323A0015
:10109800546F6E6520333A00B90202035403AD035E
:1010A800B9043805C5056106313233413435364255
:0E10B800373839432A302344000000002D054C
:00000001FF
