:100000000C945B000C9483000C9483000C9483008C
:100010000C9483000C9483000C9483000C94830054
:100020000C9483000C9483000C9483000C94830044
:100030000C9483000C9483000C9483000C94830034
:100040000C94F4020C9483000C94FD040C94830033
:100050000C9483000C9483000C9483000C94830014
:100060000C9483000C948300000024272A000025B0
:10007000282B000023262904040404040404040299
:100080000202020202030303030303010204081035
:100090002040800102040810200102040810200002
:1000A0000000070002010000030406000000000039
:1000B00000000000DA0211241FBECFEFD4E0DEBF43
:1000C000CDBF11E0A0E0B1E0EAE4FBE002C00590A2
:1000D0000D92A832B107D9F711E0A8E2B1E001C052
:1000E0001D92AA3BB107E1F710E0C6EBD0E004C0D7
:1000F0002297FE010E94A005C43BD107C9F70E94C8
:10010000F8000C94A4050C940000CF93DF93982F73
:10011000C0E0D0E01CC08C91981779F4CC0FDD1FA3
:10012000C050DF4FEE0FFF1FE85FFE4F408151814F
:1001300028813981CA01B90114C031961196E43081
:10014000F10549F72196C430D10509F40AC0DE0152
:10015000AA0FBB1FAA0FBB1FA05FBE4FE0E0F0E0DD
:10016000DACFDF91CF9108950895CF92DF92EF9289
:10017000FF920F931F9364E170E089E00E947A027E
:1001800068EE73E080E090E00E94A40381E30E94A7
:1001900085007B018C0182E30E94850083E30E943D
:1001A00085003CE2C32E31E0D32EB701C6010E9488
:1001B0004E02B801C6010E944E026BE470E089E075
:1001C0000E947A0264EF71E080E090E00E94A40354
:1001D0001F910F91FF90EF90DF90CF90089540E82E
:1001E00055E260E070E08CE291E00E94EF02089539
:1001F000CFEFD4E0DEBFCDBF0E946A030E94EF00C4
:100200000E94B500FDCFDC01ED91FC910190F081E1
:10021000E02D099508950E94030108950F931F93FF
:10022000CF93DF938C01EB0104C02196C8010E949B
:100230000B0168816623C9F7DF91CF911F910F9160
:1002400008950F931F938C016DE00E940B016AE0EB
:10025000C8010E940B011F910F9108950F931F93E6
:100260008C010E940B01C8010E9421011F910F9176
:1002700008950F931F938C010E940E01C8010E94E4
:1002800021011F910F9108950F931F938C010E94DC
:100290000301C8010E9421011F910F9108952F921F
:1002A0003F924F925F926F927F928F929F92AF9206
:1002B000BF92CF92DF92EF92FF920F931F93CF9353
:1002C000DF93CDB7DEB7A2970FB6F894DEBF0FBEAF
:1002D000CDBF9AA389A36A017B0141155105610530
:1002E000710521F460E30E940B014EC0882499241B
:1002F0005401422E5524662477241E010894211CA3
:10030000311C8101080D191DC701B601A30192011D
:100310000E944D05F80160830894811C911CA11C6A
:10032000B11CC701B601A30192010E944D056901EC
:100330007A01211531054105510519F70894810805
:100340009108A108B1087101E80CF91C0894811CFE
:10035000911CA11CB11C13C0089481089108A1082C
:10036000B108F70160816A3010F4605D01C0695C1A
:1003700089A19AA10E940B010894E108F108811457
:100380009104A104B10441F7A2960FB6F894DEBF20
:100390000FBECDBFDF91CF911F910F91FF90EF90D6
:1003A000DF90CF90BF90AF909F908F907F906F9095
:1003B0005F904F903F902F9008952AE00E944F0148
:1003C00008950F931F938C010E94DD01C8010E94C4
:1003D00021011F910F910895AB01662777270E9495
:1003E000DD0108950F931F938C010E94EC01C80159
:1003F0000E9421011F910F910895EF92FF920F9398
:100400001F93CF93DF93EC017A018B0177FF0BC031
:100410006DE20E940B0110950095F094E094E11CB0
:10042000F11C011D111D2AE0B801A701CE010E9497
:100430004F01DF91CF911F910F91FF90EF900895A1
:100440000F931F938C010E94FD01C8010E9421019E
:100450001F910F9108952115310521F4642F0E94F9
:100460000B0108952A30310519F40E94FD01089509
:100470000E944F0108950F931F938C010E942B023D
:10048000C8010E9421011F910F910895AB016627B9
:1004900057FD6095762F0E94FD0108950F931F93DD
:1004A0008C010E944602C8010E9421011F910F91F8
:1004B00008958093200108958F7090912001929566
:1004C000990F990F907C982B90937C0080917A00E3
:1004D000806480937A0080917A0086FDFCCF209121
:1004E0007800809179009927982F88273327822BCD
:1004F000932B08951F93CF93DF93182FEB0161E0A7
:100500000E94CE03E12FFF27E156FF4F84918330F5
:1005100051F480918000806880938000D09389009E
:10052000C093880037C0843051F48091800080628D
:1005300080938000D0938B00C0938A002BC08130C1
:1005400029F484B5806884BDC7BD24C0823029F4F5
:1005500084B5806284BDC8BD1DC0863041F48091E1
:10056000B00080688093B000C093B30013C08730A0
:1005700041F48091B00080628093B000C093B400D9
:1005800009C0C038D10514F460E001C061E0812FDA
:100590000E943804DF91CF911F910895019749F48B
:1005A0006F5F7F4F31F485E291E090932D0180934E
:1005B0002C0108956FEF7FEF81E090E00E94CE0262
:1005C0000895862F0E94BC0408950E94F4040895A3
:1005D0000E94D50408950E94C40499270895CB0170
:1005E000BA010E94830408951F920F920FB60F92D2
:1005F00011242F938F939F93AF93BF9380912E01DC
:1006000090912F01A0913001B09131018050904C18
:10061000AF4FBF4F80932E0190932F01A0933001D5
:10062000B093310127C080912E0190912F01A091AC
:100630003001B091310180589E43A040B04080937A
:100640002E0190932F01A0933001B093310180913E
:10065000320190913301A0913401B091350101969E
:10066000A11DB11D8093320190933301A0933401F9
:10067000B093350180912E0190912F01A09130010E
:10068000B091310181589E43A040B04060F6BF91C7
:10069000AF919F918F912F910F900FBE0F901F9050
:1006A00018952FB7F89460913201709133018091C1
:1006B0003401909135012FBF0895019751F0880FB3
:1006C000991F880F991F02972FB7F8940197F1F798
:1006D0002FBF0895789484B5826084BD84B581600D
:1006E00084BD85B5826085BD85B5816085BDEEE63A
:1006F000F0E0808181608083E1E8F0E080818260C9
:100700008083808181608083E0E8F0E08081816087
:100710008083E1EBF0E0808184608083E0EBF0E0B7
:10072000808181608083EAE7F0E08081846080835B
:100730008081826080838081816080838081806805
:1007400080831092C1000895EF92FF920F931F9340
:100750007B018C018FB7F8944091320150913301A5
:1007600060913401709135018FBF2FB7F89480915B
:10077000320190913301A0913401B09135012FBF26
:10078000841B950BA60BB70B8E159F05A007B10711
:1007900060F31F910F91FF90EF900895282F33275A
:1007A000C90185579F4FFC01949129583F4FF9018A
:1007B0008491882381F0E82FFF27E859FF4FE491C7
:1007C000FF27662329F480819095892380830895EB
:1007D0008081892B80830895482F5527CA0181562F
:1007E0009F4FFC012491CA0185579F4FFC019491B2
:1007F00049585F4FFA013491332319F480E090E0B7
:100800000895222331F1233021F4809180008F77E5
:1008100005C0243031F4809180008F7D809380006A
:1008200018C0213019F484B58F7704C0223021F428
:1008300084B58F7D84BD0DC0263021F48091B00039
:100840008F7705C0273029F48091B0008F7D809389
:10085000B000E32FFF27EE58FF4FE491FF27808180
:1008600020E030E0892311F021E030E0C901089553
:10087000482F5527CA0181569F4FFC012491CA0178
:1008800085579F4FFC01949149585F4FFA0134916D
:100890003323C1F1222331F1233021F480918000F0
:1008A0008F7705C0243031F4809180008F7D809354
:1008B000800018C0213019F484B58F7704C022302D
:1008C00021F484B58F7D84BD0DC0263021F4809144
:1008D000B0008F7705C0273029F48091B0008F7D5C
:1008E0008093B000E32FFF27E359FF4FE491FF27E8
:1008F000662329F4808190958923808308958081DF
:10090000892B80830895EF92FF920F931F937B01B1
:100910008C0122E030E040E050E00E946F05205C56
:100920003D4B404F5F4FCA01B901A80197010E949A
:100930006F052150304040405040BB2757FDBA95CD
:10094000A52F942F832F2F5F3F4F4F4F5F4F8093E3
:10095000C50021502093C400E1ECF0E0808180616B
:1009600080838081886080838081806880831F91FC
:100970000F91FF90EF900895982F8091C00085FF10
:10098000FCCF9093C6000895809136019091370175
:1009900080589F4F2091380130913901821B930B71
:1009A00060E870E00E943A05089540913801509146
:1009B000390180913601909137018417950719F418
:1009C0008FEF9FEF0895FA01E65CFE4F2081CA0188
:1009D000019660E870E00E943A0590933901809397
:1009E0003801822F9927089580913801909139011B
:1009F000909337018093360108951F920F920FB69E
:100A00000F9211242F933F934F935F936F937F9394
:100A10008F939F93AF93BF93EF93FF934091C60043
:100A2000E0913601F0913701CF01019660E870E066
:100A30000E943A059C018091380190913901281754
:100A4000390739F0E65CFE4F40833093370120933D
:100A50003601FF91EF91BF91AF919F918F917F915F
:100A60006F915F914F913F912F910F900FBE0F901B
:100A70001F90189597FB092E07260AD077FD04D002
:100A800049D006D000201AF4709561957F4F0895E3
:100A9000F6F7909581959F4F0895A1E21A2EAA1B13
:100AA000BB1BFD010DC0AA1FBB1FEE1FFF1FA2171E
:100AB000B307E407F50720F0A21BB30BE40BF50B1B
:100AC000661F771F881F991F1A9469F760957095A4
:100AD000809590959B01AC01BD01CF01089597FBD6
:100AE000092E05260ED057FD04D0D7DF0AD0001CF2
:100AF00038F450954095309521953F4F4F4F5F4FBB
:100B00000895F6F790958095709561957F4F8F4F7A
:100B10009F4F0895AA1BBB1B51E107C0AA1FBB1F13
:100B2000A617B70710F0A61BB70B881F991F5A9579
:100B3000A9F780959095BC01CD010895EE0FFF1F98
:0A0B40000590F491E02D0994FFCF19
:100B4A00B90202035403AD03B9043805C5056106A9
:100B5A003132334134353642373839432A30234427
:080B6A000100000000E102009F
:00000001FF
